S016000053444B5F5A61675F47726F7570322E737265630D
S11300000C942A000C9447000C9447000C9447006D
S11300100C9447000C9447000C9447000C94470040
S11300200C9447000C9447000C9447000C94470030
S11300300C9447000C9447000C9447000C94470020
S11300400C9447000C9447000C9447000C94470010
S11300500C94470011241FBECFE5D8E0DEBFCDBF0E
S113006010E0A0E6B0E0EAE8F7E002C005900D92E7
S1130070A037B107D9F710E0A0E7B0E001C01D92A6
S1130080A337B107E1F70E941B030C94C3030C943C
S11300900000843409F471C0853448F4823499F141
S11300A0833408F04DC0813409F083C00FC0823618
S11300B051F1833620F4813609F07BC007C08336C2
S11300C009F43EC0843609F074C057C0413069F465
S11300D02AB381E090E0AC0102C0440F551F6A9539
S11300E0E2F7BA01622B6ABB08952AB381E090E07B
S11300F0AC0102C0440F551F6A95E2F7BA0160953E
S113010062236ABB0895413069F427B381E090E02B
S1130110AC0102C0440F551F6A95E2F7BA01622B85
S113012067BB089527B381E090E0AC0102C0440F9F
S1130130551F6A95E2F7BA016095622367BB08957B
S1130140413069F424B381E090E0AC0102C0440F73
S1130150551F6A95E2F7BA01622B64BB089524B374
S113016081E090E0AC0102C0440F551F6A95E2F7AC
S1130170BA016095622364BB0895413069F421B3E8
S113018081E090E0AC0102C0440F551F6A95E2F78C
S1130190BA01622B61BB089521B381E090E0AC0108
S11301A002C0440F551F6A95E2F7BA0160956223B5
S11301B061BB08958434D9F0853438F4823499F0DD
S11301C0833498F48134A1F40CC0823661F0833610
S11301D018F4813669F405C0833639F0843641F465
S11301E006C06ABB089567BB089564BB089561BBEC
S11301F00895843409F471C0853448F4823499F143
S1130200833408F04DC0813409F083C00FC08236B6
S113021051F1833620F4813609F07BC007C0833660
S113022009F43EC0843609F074C057C0413069F403
S11302302BB381E090E0AC0102C0440F551F6A95D6
S1130240E2F7BA01622B6BBB08952BB381E090E017
S1130250AC0102C0440F551F6A95E2F7BA016095DC
S113026062236BBB0895413069F428B381E090E0C8
S1130270AC0102C0440F551F6A95E2F7BA01622B24
S113028068BB089528B381E090E0AC0102C0440F3C
S1130290551F6A95E2F7BA016095622368BB089519
S11302A0413069F425B381E090E0AC0102C0440F11
S11302B0551F6A95E2F7BA01622B65BB089525B311
S11302C081E090E0AC0102C0440F551F6A95E2F74B
S11302D0BA016095622365BB0895413069F422B385
S11302E081E090E0AC0102C0440F551F6A95E2F72B
S11302F0BA01622B62BB089522B381E090E0AC01A5
S113030002C0440F551F6A95E2F7BA016095622353
S113031062BB08958434D9F0853438F4823499F07A
S1130320833498F48134A1F40CC0823661F08336AE
S113033018F4813669F405C0833639F0843641F403
S113034006C06BBB089568BB089565BB089562BB86
S11303500895843409F451C0853440F4823439F169
S11303608334C0F5813409F05AC00EC08236F9F0E6
S1130370833620F4813609F052C006C0833651F129
S1130380843609F04CC039C029B381E090E0062ED0
S113039002C0880F991F0A94E2F730E08223932366
S11303A002C0959587956A95E2F7982F38C026B3D1
S11303B081E090E0062E02C0880F991F0A94E2F7AC
S11303C030E08223932302C0959587956A95E2F7DE
S11303D0982F25C023B381E090E0062E02C0880F39
S11303E0991F0A94E2F730E08223932302C0959583
S11303F087956A95E2F7982F12C020B381E090E0C8
S1130400062E02C0880F991F0A94E2F730E0822377
S1130410932302C0959587956A95E2F7982F892FC3
S113042008958434D9F0853438F4823499F08334CF
S113043098F48134A1F40CC0823661F0833618F448
S1130440813669F405C0833639F0843641F406C038
S113045099B305C096B303C093B301C090B3892F79
S1130460089541E00E94F900089540E00E94F900D7
S11304700895CF93C82F6130A1F460E041E00E9459
S113048049008C2F61E041E00E9449008C2F62E01A
S113049041E00E9449008C2F63E041E00E94490042
S11304A013C060E040E00E9449008C2F61E040E00E
S11304B00E9449008C2F62E040E00E9449008C2F8A
S11304C063E040E00E944900CF9108956F70843446
S11304D051F1853438F48234C1F08334E8F4813442
S11304E041F50CC0823689F0833618F4813609F55B
S11304F005C0833689F08436E1F415C08BB3807F60
S11305008BBB8BB3682B6BBB089588B3807F88BB90
S113051088B3682B68BB089585B3807F85BB85B39A
S1130520682B65BB089582B3807F82BB82B3682B3E
S113053062BB0895CF93C82F6130A1F464E041E019
S11305400E9449008C2F65E041E00E9449008C2FF5
S113055066E041E00E9449008C2F67E041E00E9480
S1130560490013C064E040E00E9449008C2F65E01C
S113057040E00E9449008C2F66E040E00E94490060
S11305808C2F67E040E00E944900CF910895607F7E
S1130590843451F1853438F48234C1F08334E8F47E
S11305A0813441F50CC0823689F0833618F48136E3
S11305B009F505C0833689F08436E1F415C08BB3A0
S11305C08F708BBB8BB3682B6BBB089588B38F7014
S11305D088BB88B3682B68BB089585B38F7085BBCF
S11305E085B3682B65BB089582B38F7082BB82B3D9
S11305F0682B62BB089541E00E944900089541E0E0
S11306000E94F900089540E00E94F9000895CF93F4
S1130610DF93D82FC62F0E94A901813029F48D2F92
S11306206C2F0E94030304C08D2F6C2F0E94FF02C5
S1130630DF91CF91089581E466E00E94FB0284E497
S113064061E00E94B20384E461E00E94C003882355
S113065091F481E466E00E94FF028FEF92E5A7E047
S113066081509040A040E1F700C0000081E466E0C2
S11306700E940303E8CF81E466E00E940303E3CF12
S1130680CF93DF93D62FC42F882359F4862F6FEF8F
S11306900E94DA0010927000C0937100D09372002F
S11306A00FC0813069F4442329F4862F61E00E944D
S11306B0390206C0413021F4862F61E00E949A027B
S11306C0DF91CF910895CF93DF93CDB7DEB72A970B
S11306D00FB6F894DEBF0FBECDBF682F80917000B7
S11306E0813081F480917100882329F48091720013
S11306F00E9466022EC0813061F5809172000E94D2
S1130700C70227C0882329F56A3090F4DE011196C8
S1130710E0E6F0E08AE001900D928150E1F7FE01FD
S1130720E60FF11D8091720061810E948A0111C05F
S1130730DE011196EAE6F0E086E001900D92815028
S1130740E1F7FE01E60FF11D8091720061810E94C4
S11307508A012A960FB6F894DEBF0FBECDBFDF9193
S1130760CF910895CF93DF93D82FC62F40E00E94F6
S113077049008D2F6C2F0E943102DF91CF91089593
S10D07800E94A9010895F894FFCF28
S113078A3F065B4F666D7D077F6F771F395E797110
S9030000FC
