:100000000C942A000C9447000C9447000C94470071
:100010000C9447000C9447000C9447000C94470044
:100020000C9447000C9447000C9447000C94470034
:100030000C9447000C9447000C9447000C94470024
:100040000C9447000C9447000C9447000C94470014
:100050000C94470011241FBECFE5D8E0DEBFCDBF12
:1000600010E0A0E6B0E0E0E2F8E102C005900D92F9
:10007000A039B107D9F710E0A0E9B0E001C01D92A6
:10008000A539B107E1F70E94CB060C940E0C0C9435
:1000900000003E9A3F9A379A329A319A30980895E2
:1000A00097B1907E97B997B18770982B97B9369A88
:1000B000349BFECF349A84B190E045B1342F20E0D8
:1000C000822B932B0895843409F471C0853448F44D
:1000D000823499F1833408F04DC0813409F083C033
:1000E0000FC0823651F1833620F4813609F07BC08F
:1000F00007C0833609F43EC0843609F074C057C087
:10010000413069F42AB381E090E0AC0102C0440FB1
:10011000551F6A95E2F7BA01622B6ABB08952AB3AC
:1001200081E090E0AC0102C0440F551F6A95E2F7F0
:10013000BA01609562236ABB0895413069F427B320
:1001400081E090E0AC0102C0440F551F6A95E2F7D0
:10015000BA01622B67BB089527B381E090E0AC0140
:1001600002C0440F551F6A95E2F7BA0160956223F9
:1001700067BB0895413069F424B381E090E0AC019D
:1001800002C0440F551F6A95E2F7BA01622B64BBA7
:10019000089524B381E090E0AC0102C0440F551FE4
:1001A0006A95E2F7BA016095622364BB0895413015
:1001B00069F421B381E090E0AC0102C0440F551F07
:1001C0006A95E2F7BA01622B61BB089521B381E021
:1001D00090E0AC0102C0440F551F6A95E2F7BA01E6
:1001E0006095622361BB08958434D9F0853438F476
:1001F000823499F0833498F48134A1F40CC08236AF
:1002000061F0833618F4813669F405C0833639F01D
:10021000843641F406C06ABB089567BB089564BB89
:10022000089561BB0895843409F471C0853448F49D
:10023000823499F1833408F04DC0813409F083C0D1
:100240000FC0823651F1833620F4813609F07BC02D
:1002500007C0833609F43EC0843609F074C057C025
:10026000413069F42BB381E090E0AC0102C0440F4F
:10027000551F6A95E2F7BA01622B6BBB08952BB349
:1002800081E090E0AC0102C0440F551F6A95E2F78F
:10029000BA01609562236BBB0895413069F428B3BD
:1002A00081E090E0AC0102C0440F551F6A95E2F76F
:1002B000BA01622B68BB089528B381E090E0AC01DD
:1002C00002C0440F551F6A95E2F7BA016095622398
:1002D00068BB0895413069F425B381E090E0AC013A
:1002E00002C0440F551F6A95E2F7BA01622B65BB45
:1002F000089525B381E090E0AC0102C0440F551F82
:100300006A95E2F7BA016095622365BB08954130B2
:1003100069F422B381E090E0AC0102C0440F551FA4
:100320006A95E2F7BA01622B62BB089522B381E0BD
:1003300090E0AC0102C0440F551F6A95E2F7BA0184
:100340006095622362BB08958434D9F0853438F413
:10035000823499F0833498F48134A1F40CC082364D
:1003600061F0833618F4813669F405C0833639F0BC
:10037000843641F406C06BBB089568BB089565BB25
:10038000089562BB0895843409F451C0853440F463
:10039000823439F18334C0F5813409F05AC00EC07B
:1003A0008236F9F0833620F4813609F052C006C057
:1003B000833651F1843609F04CC039C029B381E04D
:1003C00090E0062E02C0880F991F0A94E2F730E0F1
:1003D0008223932302C0959587956A95E2F7982F1B
:1003E00038C026B381E090E0062E02C0880F991F26
:1003F0000A94E2F730E08223932302C09595879513
:100400006A95E2F7982F25C023B381E090E0062E8D
:1004100002C0880F991F0A94E2F730E082239323E9
:1004200002C0959587956A95E2F7982F12C020B380
:1004300081E090E0062E02C0880F991F0A94E2F72F
:1004400030E08223932302C0959587956A95E2F761
:10045000982F892F08958434D9F0853438F4823464
:1004600099F0833498F48134A1F40CC0823661F0A1
:10047000833618F4813669F405C0833639F0843642
:1004800041F406C099B305C096B303C093B301C04D
:1004900090B3892F089541E00E941301089540E030
:1004A0000E9413010895CF93C82F6130A1F460E03A
:1004B00041E00E9463008C2F61E041E00E946300F4
:1004C0008C2F62E041E00E9463008C2F63E041E0EA
:1004D0000E94630013C060E040E00E9463008C2F24
:1004E00061E040E00E9463008C2F62E040E00E94E7
:1004F00063008C2F63E040E00E946300CF91089579
:100500006F70843451F1853438F48234C1F083340F
:10051000E8F4813441F50CC0823689F0833618F452
:10052000813609F505C0833689F08436E1F415C0BB
:100530008BB3807F8BBB8BB3682B6BBB089588B369
:10054000807F88BB88B3682B68BB089585B3807FA4
:1005500085BB85B3682B65BB089582B3807F82BB62
:1005600082B3682B62BB0895CF93C82F6130A1F48A
:1005700064E041E00E9463008C2F65E041E00E944E
:1005800063008C2F66E041E00E9463008C2F67E0DF
:1005900041E00E94630013C064E040E00E946300F9
:1005A0008C2F65E040E00E9463008C2F66E040E005
:1005B0000E9463008C2F67E040E00E946300CF91AF
:1005C0000895607F843451F1853438F48234C1F069
:1005D0008334E8F4813441F50CC0823689F08336E7
:1005E00018F4813609F505C0833689F08436E1F4C4
:1005F00015C08BB38F708BBB8BB3682B6BBB08950F
:1006000088B38F7088BB88B3682B68BB089585B3A7
:100610008F7085BB85B3682B65BB089582B38F70DF
:1006200082BB82B3682B62BB08958EBB9FBB6DBB40
:10063000E29AE19AE199FECF08958EBB9FBBE09AC2
:100640008DB30895CF93C82F6FE00E94F4008C2FD4
:1006500064E00E944B028C2F65E00E944B028C2FBD
:1006600066E00E944B028C2F67E00E944B02CF9104
:100670000895FF920F931F93CF93DF93CDB7DEB70B
:1006800060970FB6F894DEBF0FBECDBF082FDE0116
:100690001196E0E6F0E080E101900D928150E1F7E3
:1006A000FF24802F60E041E00E941301802F61E071
:1006B00041E00E941301802F62E041E00E9413019B
:1006C000802F63E041E00E941301802F6F2D40E0F6
:1006D0000E94130110E0612F6C5F802F0E94C30104
:1006E000882361F4EF2DF0E0EE0FFF1FEE0FFF1FE8
:1006F000E10FF11DEC0FFD1F818104C01F5F14305D
:1007000051F70CC060960FB6F894DEBF0FBECDBF98
:10071000DF91CF911F910F91FF900895F39484E0A2
:10072000F81609F0BECF8FEFEDCFE0919000F09179
:1007300091008781608541E00E9413018FE99FE06D
:100740000197F1F700C00000E0919000F091910056
:100750008781608540E00E94130108958F92AF92D7
:10076000CF92EF920F93CF93DF93CDB7DEB79093F5
:10077000910080939000FC016083E0919000F091E3
:1007800091004183E0919000F091910022830383D6
:10079000E482C582A68287828A858087DF91CF9195
:1007A0000F91EF90CF90AF908F900895CF93C82F77
:1007B000E0919000F09191008081813081F48281FC
:1007C0006C2F0E94A401E0919000F0919100838130
:1007D000648140E00E9413010E94950358C081810A
:1007E000813059F56C2F62956F7082810E94E10211
:1007F000E0919000F09191008381648140E00E943B
:1008000013010E949503E0919000F0919100828184
:100810006C2F0E94E102E0919000F09191008381A1
:10082000648140E00E9413010E9495038FEC97E0E1
:100830000197F1F700C000002AC06C2F62956F701D
:1008400082810E948002E0919000F091910083816A
:10085000648140E00E9413010E949503E0919000A2
:10086000F091910082816C2F0E948002E0919000B3
:10087000F09191008381648140E00E9413010E9405
:1008800095038FEC97E00197F1F700C00000CF913E
:1008900008958091900090919100009709F4D5C03F
:1008A0008FEF91EEA4E081509040A040E1F700C0AE
:1008B0000000E0919000F09191008381648141E01B
:1008C0000E946300E0919000F09191008581668123
:1008D00041E00E946300E0919000F09191008781D7
:1008E000608541E00E946300E0919000F0919100EA
:1008F00080818130C1F582816FEF0E94F400E09128
:100900009000F09191008581668140E00E94130182
:10091000AFE2B5E71197F1F700C0000088E30E944D
:10092000D6038FEC97E00197F1F700C000008EE04E
:100930000E94D603AFECB7E01197F1F700C00000BA
:1009400081E00E94D6038FE19EE40197F1F700C099
:10095000000086E00E94D603AFECB7E01197F1F7F4
:1009600000C00000089581818130C1F5828161E07D
:100970000E94B402E0919000F0919100858166811F
:1009800040E00E9413018FE295E70197F1F700C064
:10099000000088E20E94D603AFECB7E01197F1F7B0
:1009A00000C000008EE00E94D6038FEC97E0019714
:1009B000F1F700C0000081E00E94D603AFE1BEE481
:1009C0001197F1F700C0000086E00E94D6038FEC7B
:1009D00097E00197F1F700C000000895828161E07F
:1009E0000E945302E0919000F09191008581668110
:1009F00040E00E941301AFE2B5E71197F1F700C0A4
:100A0000000088E20E94D6038FEC97E00197F1F78F
:100A100000C000008EE00E94D603AFECB7E0119753
:100A2000F1F700C0000081E00E94D6038FE19EE450
:100A30000197F1F700C0000086E00E94D603AFECFA
:100A4000B7E01197F1F700C000000895CF93C82FC9
:100A5000E0919000F091910080818130B1F4828129
:100A60006C2F0E94A401E0919000F091910083818D
:100A7000648141E00E9413010E9495038FEC97E08E
:100A80000197F1F700C0000058C08181813059F50D
:100A90006C2F62956F7082810E94E102E09190005C
:100AA000F09191008381648141E00E9413010E94D2
:100AB0009503E0919000F091910082816C2F0E944B
:100AC000E102E0919000F09191008381648141E026
:100AD0000E9413010E9495038FEC97E00197F1F7B4
:100AE00000C000002AC06C2F62956F7082810E9446
:100AF0008002E0919000F09191008381648141E057
:100B00000E9413010E949503E0919000F0919100E2
:100B100082816C2F0E948002E0919000F091910000
:100B20008381648141E00E9413010E9495038FEC50
:100B300097E00197F1F700C00000CF910895CF939F
:100B4000DF93EC018881882331F021960E942605ED
:100B500089918823D9F7DF91CF910895282F2150CB
:100B6000233070F4613170F4662371F0813019F430
:100B7000962F91580AC0823041F4962F915405C0A7
:100B800090E803C090E801C090E8892F0E94D60346
:100B90008FEC97E00197F1F700C00000089581E025
:100BA0000E94D6038FE19EE40197F1F700C0000098
:100BB00008950F931F93CF93DF93CDB7DEB7279799
:100BC0000FB6F894DEBF0FBECDBFDC01CB012DB751
:100BD0003EB7285030400FB6F8943EBF0FBE2DBF31
:100BE0004DB75EB74F5F5F4F8E010F5F1F4FEDB781
:100BF000FEB71283018320E730E0FA0133832283BA
:100C000084839583A683B7830E9437092DB73EB7A7
:100C1000285F3F4F0FB6F8943EBF0FBE2DBFC801EF
:100C20000E949F0527960FB6F894DEBF0FBECDBF7A
:100C3000DF91CF911F910F9108958F929F92AF9264
:100C4000BF92CF92DF92EF92FF920F931F93CF93B9
:100C5000DF93CDB7DEB760970FB6F894DEBF0FBE57
:100C6000CDBF6B017C0120E030E0A9010E94ED07BF
:100C700088236CF446015701B7FAB094B7F8B094E2
:100C80000F2EF3E7EF2EF0E0FF2EF02D08C0460107
:100C900057010F2EF5E7EF2EF0E0FF2EF02DC501E6
:100CA000B4010E94F1072DB73EB72E5030400FB669
:100CB000F8943EBF0FBE2DBFCDB6DEB60894C11C62
:100CC000D11C8E010F5F1F4FEDB7FEB7128301835A
:100CD00026E730E0F60133832283F582E4826683DF
:100CE0007783808791870E9424089B01AC01C5010E
:100CF000B4010E94880720E030E44CE156E40E94F1
:100D0000D4080E94F107DC01CB01F60182879387AA
:100D1000A487B5870E9437092DB73EB7225F3F4FA2
:100D20000FB6F8943EBF0FBE2DBFC8010E949F05AD
:100D300060960FB6F894DEBF0FBECDBFDF91CF91A6
:100D40001F910F91FF90EF90DF90CF90BF90AF90E9
:100D50009F908F90089541E00E946300089541E0C4
:100D60000E941301089540E00E9413010895CF935B
:100D7000DF93D82FC62F0E94C301813029F48D2F15
:100D80006C2F0E94B30604C08D2F6C2F0E94AF06FB
:100D9000DF91CF910895CF93DF93CDB7DEB7299739
:100DA0000FB6F894DEBF0FBECDBF0F9282E0ADB795
:100DB000BEB711968C93CE01019661E041E021E42B
:100DC00002E4EE240F2EF2E4CF2EF02DAA24A394F9
:100DD0000F2EF2E48F2EF02D0E94AE030F900E9492
:100DE000490483E40E94220383E40E9439038F3F75
:100DF000D9F30E9426058FEF94E3ACE08150904038
:100E0000A040E1F700C00000EFCFCF93DF93D62FD3
:100E1000C42F882359F4862F6FEF0E94F40010929C
:100E20009200C0939300D09394000FC0813069F476
:100E3000442329F4862F61E00E94530206C041300A
:100E400021F4862F61E00E94B402DF91CF910895D2
:100E5000CF93DF93CDB7DEB72A970FB6F894DEBFF6
:100E60000FBECDBF682F80919200813081F48091B8
:100E70009300882329F4809194000E9480022EC060
:100E8000813061F5809194000E94E10227C088239F
:100E900029F56A3090F4DE011196E0E8F0E08AE08E
:100EA00001900D928150E1F7FE01E60FF11D809156
:100EB000940061810E94A40111C0DE011196EAE84C
:100EC000F0E086E001900D928150E1F7FE01E60F1F
:100ED000F11D8091940061810E94A4012A960FB6B1
:100EE000F894DEBF0FBECDBFDF91CF910895CF93B1
:100EF000DF93D82FC62F40E00E9463008D2F6C2F08
:100F00000E944B02DF91CF9108950E94C301089582
:100F10005058BB27AA270ED00DC1FED030F003D108
:100F200020F031F49F3F11F41EF4F3C00EF4E0956D
:100F3000E7FBE9C0E92F0FD180F3BA176207730707
:100F40008407950718F071F49EF527C10EF4E0951B
:100F50000B2EBA2FA02D0B01B90190010C01CA0173
:100F6000A0011124FF27591B99F0593F50F4503E1E
:100F700068F11A16F040A22F232F342F4427585F10
:100F8000F3CF469537952795A795F0405395C9F728
:100F90007EF41F16BA0B620B730B840BBAF09150E0
:100FA000A1F0FF0FBB1F661F771F881FC2F70EC07F
:100FB000BA0F621F731F841F48F487957795679552
:100FC000B795F7959E3F08F0B3CF9395880F08F03B
:100FD0009927EE0F97958795089571D008F481E0D1
:100FE000089504D06894B111D9C00895BCD088F098
:100FF0009F5790F0B92F9927B751A0F0D1F0660F05
:10100000771F881F991F1AF0BA95C9F712C0B1301F
:1010100081F0C3D0B1E00895C0C0672F782F882732
:10102000B85F39F0B93FCCF3869577956795B3955E
:10103000D9F73EF490958095709561957F4F8F4FCD
:101040009F4F0895E89409C097FB3EF490958095D2
:10105000709561957F4F8F4F9F4F9923A9F0F92F7E
:1010600096E9BB279395F695879577956795B795FC
:10107000F111F8CFFAF4BB0F11F460FF1BC06F5FE2
:101080007F4F8F4F9F4F16C0882311F096E911C0F4
:10109000772321F09EE8872F762F05C0662371F015
:1010A00096E8862F70E060E02AF09A95660F771F29
:1010B000881FDAF7880F9695879597F90895990F05
:1010C0000008550FAA0BE0E8FEEF16161706E80712
:1010D000F907C0F012161306E407F50798F0621B33
:1010E000730B840B950B39F40A2661F0232B242B08
:1010F000252B21F408950A2609F4A140A6958FEF27
:10110000811D811D089597F99F6780E870E060E078
:1011100008959FEF80EC089500240A941616170690
:1011200018060906089500240A94121613061406D8
:1011300005060895092E0394000C11F4882352F03B
:10114000BB0F40F4BF2B11F460FF04C06F5F7F4FF3
:101150008F4F9F4F089557FD9058440F551F59F0DA
:101160005F3F71F04795880F97FB991F61F09F3F94
:1011700079F087950895121613061406551FF2CFBD
:101180004695F1DF08C0161617061806991FF1CF0D
:1011900086957105610508940895E894BB27662734
:1011A0007727CB0197F908950BD0C4CFB5DF28F08E
:1011B000BADF18F0952309F0A6CFABCF1124EECFFC
:1011C000CADFA0F3959FD1F3950F50E0551F629FA2
:1011D000F001729FBB27F00DB11D639FAA27F00D90
:1011E000B11DAA1F649F6627B00DA11D661F829FB7
:1011F0002227B00DA11D621F739FB00DA11D621F9C
:10120000839FA00D611D221F749F3327A00D611DB8
:10121000231F849F600D211D822F762F6A2F11249A
:101220009F5750408AF0E1F088234AF0EE0FFF1FED
:10123000BB1F661F771F881F91505040A9F79E3F24
:10124000510570F060CFAACF5F3FECF3983EDCF31E
:10125000869577956795B795F795E7959F5FC1F761
:10126000FE2B880F911D9695879597F90895AEE00E
:10127000B0E0EDE3F9E00C94E50B0D891E8986E002
:101280008C831A8309838FEF9FE79E838D83AE0142
:10129000475E5F4FCE0101966F89788D0E94590994
:1012A000EF81F885E00FF11F10822E96E4E00C9498
:1012B000010CADE0B0E0EFE5F9E00C94D70B3C0198
:1012C0007D876C875A01FC0117821682838181FF1A
:1012D000C8C12E010894411C511CF3019381EC8577
:1012E000FD8593FD859193FF8191FD87EC87882390
:1012F00009F4B3C1853241F493FD859193FF819147
:10130000FD87EC87853229F490E0B3010E944D0BF4
:10131000E4CFFF24EE2410E01032B0F48B3269F0F9
:101320008C3228F4803251F0833271F40BC08D324C
:1013300039F0803349F411602CC01260146029C068
:10134000186027C0106125C017FD2EC0282F20531C
:101350002A3098F416FF08C08F2D880FF82EFF0C46
:10136000FF0CF80EF20E15C08E2D880FE82EEE0C35
:10137000EE0CE80EE20E10620CC08E3221F416FD67
:101380006CC1106406C08C3611F4106802C0883637
:1013900059F4EC85FD8593FD859193FF8191FD873F
:1013A000EC87882309F0B8CF982F9554933018F024
:1013B0009052933038F424E030E0A20EB31E3FE3A5
:1013C00039830FC0833631F0833781F0833509F0DC
:1013D0005AC022C0F5018081898322E030E0A20E4C
:1013E000B31E21E0C22ED12C420114C092E0292E5E
:1013F000312C2A0C3B1CF5018080918016FF03C024
:101400006F2D70E002C06FEF7FEFC4010E94420BAE
:101410006C0151011F7715C082E0282E312C2A0C57
:101420003B1CF5018080918016FF03C06F2D70E09A
:1014300002C06FEF7FEFC4010E94370B6C01106890
:10144000510113FD1CC006C080E290E0B3010E9470
:101450004D0BEA948E2D90E0C816D906A8F30FC064
:10146000F40117FD859117FF81914F0190E0B301C1
:101470000E944D0BE110EA940894C108D108C114F0
:10148000D10471F7E7C0843611F0893651F5F501C2
:1014900017FF07C080819181A281B38124E030E0F1
:1014A00008C080819181AA2797FDA095BA2F22E0DC
:1014B00030E0A20EB31E012F0F76B7FF08C0B09523
:1014C000A095909581959F4FAF4FBF4F0068BC018D
:1014D000CD01A2012AE030E00E94790BD82ED41869
:1014E0003FC0853721F41F7E2AE030E020C0197FFD
:1014F0008F36A9F0803720F4883509F0AEC00BC0D4
:10150000803721F0883709F0A8C001C0106114FFAE
:1015100009C0146007C014FF08C0166006C028E0A8
:1015200030E005C020E130E002C020E132E0F5010A
:1015300017FF07C0608171818281938144E050E090
:1015400006C06081718180E090E042E050E0A40E2E
:10155000B51EA2010E94790BD82ED418012F0F7747
:1015600006FF09C00E7FDF1430F404FF06C002FD41
:1015700004C00F7E02C01D2D01C01F2D802F90E0E2
:1015800004FF0CC0FE01ED0DF11D2081203311F48C
:10159000097E09C002FF06C01E5F05C086789070F4
:1015A000009709F01F5F802E992403FD12C000FFF1
:1015B0000DC0FD2C1E1550F4FE0CF11A1E2D06C098
:1015C00080E290E0B3010E944D0B1F5F1E15C0F337
:1015D00004C01E1510F4E11A01C0EE2484FE0FC0F1
:1015E00080E390E0B3010E944D0B82FE1FC081FE9C
:1015F00003C088E590E010C088E790E00DC0C4010A
:1016000086789070009791F081FC02C080E201C062
:101610008BE207FD8DE290E0B3010E944D0B06C006
:1016200080E390E0B3010E944D0BFA94DF14C0F305
:10163000DA94F201ED0DF11D808190E0B3010E947A
:101640004D0BDD20A9F706C080E290E0B3010E94B7
:101650004D0BEA94EE20C1F740CEF30186819781CD
:1016600002C08FEF9FEF2D96E2E10C94F30BFC018B
:101670000590615070400110D8F7809590958E0FBD
:101680009F1F0895FC016150704001900110D8F730
:10169000809590958E0F9F1F08950F931F93CF9362
:1016A000DF938C01EB018B8181FF1BC082FF0DC09A
:1016B0002E813F818C819D812817390764F4E88150
:1016C000F9810193F983E88306C0E885F985802FC5
:1016D0000995009731F48E819F8101969F838E83B7
:1016E00002C00FEF1FEFC801DF91CF911F910F9143
:1016F0000895FA01AA27283051F1203181F1E894A8
:101700006F936E7F6E5F7F4F8F4F9F4FAF4FB1E0F4
:101710003ED0B4E03CD0670F781F891F9A1FA11DEF
:10172000680F791F8A1F911DA11D6A0F711D811DF0
:10173000911DA11D20D009F468943F912AE0269FB5
:1017400011243019305D3193DEF6CF010895462F14
:101750004770405D4193B3E00FD0C9F7F6CF462FF5
:101760004F70405D4A3318F0495D31FD405241935E
:1017700002D0A9F7EACFB4E0A6959795879577951B
:101780006795BA95C9F700976105710508959B01A2
:10179000AC010A2E06945795479537952795BA952B
:1017A000C9F7620F731F841F951FA01D08952F9204
:1017B0003F924F925F926F927F928F929F92AF92E1
:1017C000BF92CF92DF92EF92FF920F931F93CF932E
:1017D000DF93CDB7DEB7CA1BDB0B0FB6F894DEBFC5
:1017E0000FBECDBF09942A88398848885F846E84EB
:1017F0007D848C849B84AA84B984C884DF80EE8035
:10180000FD800C811B81AA81B981CE0FD11D0FB63D
:10181000F894DEBF0FBECDBFED010895F894FFCF61
:101820003738392F3435362A3132332D41303D2B7C
:101830002564002D0000257325642E2530346400B6
:101840003F065B4F666D7D077F6F771F395E79714D
:00000001FF
